:020000040000fa
:080000000002040000000000f2
:020000040000fa
:040008003e030000b3
:020000040000fa
:04000c003e030000af
:020000040000fa
:040010003e030000ab
:020000040000fa
:040014003e030000a7
:020000040000fa
:040018003e030000a3
:020000040000fa
:04001c003e0300009f
:020000040000fa
:040020003e0300009b
:020000040000fa
:040024003e03000097
:020000040000fa
:040028003e03000093
:020000040000fa
:04002c003e0300008f
:020000040000fa
:040030003e0300008b
:020000040000fa
:04003400b002000016
:020000040000fa
:040038003e03000083
:020000040000fa
:04003c003e0300007f
:020000040000fa
:040040003e0300007b
:020000040000fa
:040044003e03000077
:020000040000fa
:040048003e03000073
:020000040000fa
:04004c003e0300006f
:020000040000fa
:040050003e0300006b
:020000040000fa
:040054003e03000067
:020000040000fa
:04005800b8020000ea
:020000040000fa
:04005c003e0300005f
:020000040000fa
:040060003e0300005b
:020000040000fa
:040064003e03000057
:020000040000fa
:040068003e03000053
:020000040000fa
:04006c003e0300004f
:020000040000fa
:040070003e0300004b
:020000040000fa
:04007400a8020000de
:020000040000fa
:040078003e03000043
:020000040000fa
:04007c003e0300003f
:020000040000fa
:040080003e0300003b
:020000040000fa
:040084003e03000037
:020000040000fa
:040088003e03000033
:020000040000fa
:04008c003e0300002f
:020000040000fa
:040090003e0300002b
:020000040000fa
:040094003e03000027
:020000040000fa
:040098003e03000023
:020000040000fa
:04009c003e0300001f
:020000040000fa
:0400a0003e0300001b
:020000040000fa
:0400a4003e03000017
:020000040000fa
:0400a8003e03000013
:020000040000fa
:0400ac003e0300000f
:020000040000fa
:0400b0003e0300000b
:020000040000fa
:0400b4003e03000007
:020000040000fa
:0400b8003e03000003
:020000040000fa
:0400bc003e030000ff
:020000040000fa
:0400c0003e030000fb
:020000040000fa
:0400c4003e030000f7
:020000040000fa
:0400c8003e030000f3
:020000040000fa
:0400cc003e030000ef
:020000040000fa
:0400d0003e030000eb
:020000040000fa
:0400d4003e030000e7
:020000040000fa
:0400d8003e030000e3
:020000040000fa
:0400dc003e030000df
:020000040000fa
:0400e0003e030000db
:020000040000fa
:0400e4003e030000d7
:020000040000fa
:0400e8003e030000d3
:020000040000fa
:0400ec003e030000cf
:020000040000fa
:0400f0003e030000cb
:020000040000fa
:0400f4003e030000c7
:020000040000fa
:0400f8003e030000c3
:020000040000fa
:0400fc003e030000bf
:020000040000fa
:040100003e030000ba
:020000040000fa
:040104003e030000b6
:020000040000fa
:040108003e030000b2
:020000040000fa
:04010c003e030000ae
:020000040000fa
:040110003e030000aa
:020000040000fa
:040114003e030000a6
:020000040000fa
:040118003e030000a2
:020000040000fa
:04011c003e0300009e
:020000040000fa
:040120003e0300009a
:020000040000fa
:040124003e03000096
:020000040000fa
:040128003e03000092
:020000040000fa
:04012c003e0300008e
:020000040000fa
:040130003e0300008a
:020000040000fa
:040134003e03000086
:020000040000fa
:040138003e03000082
:020000040000fa
:04013c003e0300007e
:020000040000fa
:040140003e0300007a
:020000040000fa
:040144003e03000076
:020000040000fa
:040148003e03000072
:020000040000fa
:04014c003e0300006e
:020000040000fa
:040150003e0300006a
:020000040000fa
:040154003e03000066
:020000040000fa
:040158003e03000062
:020000040000fa
:04015c003e0300005e
:020000040000fa
:040160003e0300005a
:020000040000fa
:040164003e03000056
:020000040000fa
:040168003e03000052
:020000040000fa
:040208003e030000b1
:020000040000fa
:04020c003e030000ad
:020000040000fa
:040210003e030000a9
:020000040000fa
:040214003e030000a5
:020000040000fa
:040218003e030000a1
:020000040000fa
:04021c003e0300009d
:020000040000fa
:040220003e03000099
:020000040000fa
:040224003e03000095
:020000040000fa
:040228003e03000091
:020000040000fa
:04022c003e0300008d
:020000040000fa
:040230003e03000089
:020000040000fa
:040234003e03000085
:020000040000fa
:040238003e03000081
:020000040000fa
:04023c003e0300007d
:020000040000fa
:040240003e03000079
:020000040000fa
:040244003e03000075
:020000040000fa
:040248003e03000071
:020000040000fa
:04024c003e0300006d
:020000040000fa
:040250003e03000069
:020000040000fa
:040254003e03000065
:020000040000fa
:040258003e03000061
:020000040000fa
:04025c003e0300005d
:020000040000fa
:040260003e03000059
:020000040000fa
:040264003e03000055
:020000040000fa
:040268003e03000051
:020000040000fa
:04026c003e0300004d
:020000040000fa
:040270003e03000049
:020000040000fa
:040274003e03000045
:020000040000fa
:040278003e03000041
:020000040000fa
:04027c003e0300003d
:020000040000fa
:040280003e03000039
:020000040000fa
:040284003e03000035
:020000040000fa
:040288003e03000031
:020000040000fa
:04028c003e0300002d
:020000040000fa
:040290003e03000029
:020000040000fa
:040294003e03000025
:020000040000fa
:040298003e03000021
:020000040000fa
:04029c003e0300001d
:020000040000fa
:0402a0003e03000019
:020000040000fa
:0402a4003e03000015
:020000040000fa
:0402a8003e03000011
:020000040000fa
:0402ac003e0300000d
:020000040000fa
:0402b0003e03000009
:020000040000fa
:0402b4003e03000005
:020000040000fa
:0402b8003e03000001
:020000040000fa
:0402bc003e030000fd
:020000040000fa
:0402c0003e030000f9
:020000040000fa
:0402c4003e030000f5
:020000040000fa
:0402c8003e030000f1
:020000040000fa
:0402cc003e030000ed
:020000040000fa
:0402d0003e030000e9
:020000040000fa
:0402d4003e030000e5
:020000040000fa
:0402d8003e030000e1
:020000040000fa
:0402dc003e030000dd
:020000040000fa
:0402e0003e030000d9
:020000040000fa
:0402e4003e030000d5
:020000040000fa
:0402e8003e030000d1
:020000040000fa
:0402ec003e030000cd
:020000040000fa
:0402f0003e030000c9
:020000040000fa
:0402f4003e030000c5
:020000040000fa
:0402f8003e030000c1
:020000040000fa
:0402fc003e030000bd
:020000040000fa
:040300003e030000b8
:020000040000fa
:040304003e030000b4
:020000040000fa
:040308003e030000b0
:020000040000fa
:04030c003e030000ac
:020000040000fa
:040310003e030000a8
:020000040000fa
:040314003e030000a4
:020000040000fa
:040318003e030000a0
:020000040000fa
:04031c003e0300009c
:020000040000fa
:040320003e03000098
:020000040000fa
:040324003e03000094
:020000040000fa
:040328003e03000090
:020000040000fa
:04032c003e0300008c
:020000040000fa
:040330003e03000088
:020000040000fa
:040334003e03000084
:020000040000fa
:040338003e03000080
:020000040000fa
:04033c003e0300007c
:020000040000fa
:040340003e03000078
:020000040000fa
:040344003e03000074
:020000040000fa
:040348003e03000070
:020000040000fa
:04034c003e0300006c
:020000040000fa
:040350003e03000068
:020000040000fa
:040354003e03000064
:020000040000fa
:040358003e03000060
:020000040000fa
:04035c003e0300005c
:020000040000fa
:040360003e03000058
:020000040000fa
:040364003e03000054
:020000040000fa
:040368003e03000050
:020000040000fa
:100400002f8020000eff20000e0188000000000059
:10041000000020000000e000020032000001200087
:10042000200288000c000700203a20000100200074
:1004300011000700000020000000e0000200320070
:100440000000020000000000cc02020000000000da
:100450000040da000000fe004440a9000000200037
:100460000000e0000300320000002000a00188002e
:100470004440a80000000600910188008000780038
:100480000000eb0015003700e280400032a0b4000d
:100490009101ba00e280400032a0b4009102ba009b
:1004a000e280400032a0b4000002eb00472bde00e7
:1004b000f507b200602ce10004003a000059eb009f
:1004c0008301e900fdff3e00040037006128e100e0
:1004d000010032000082eb000b00070011c3ba00dc
:1004e0001101ba000604e00003003a000200e00037
:1004f000e5ff3a0000000600f607b200960188000a
:1005000082007800f5ff37003159ba008301e90015
:100510000c0032002159ba008301e90008003200c2
:100520000400e00003003a00e280400032a0b40082
:10053000f5ff370011d9ba008301e900faff3a004c
:100540008100e800e180400032a0b4000000060015
:100550000000fa008660a9000080fa000040060052
:100560000000fa008460a9000080fa000040060044
:100570003400f800881f780008002000a8018800d7
:100580004f0478000000fa008580a9000080fa007e
:100590003400f900004006000400fa00c002a9007f
:1005a000c822a800c842a900e024ef00e224ef001e
:1005b00005e1a8000421a900200880000040a10056
:1005c0000050a0002008880040422f00100888003a
:1005d0000021ef002005800000c0a10000d0a10094
:1005e00000e0a000200588009460a9008460a900b4
:1005f00062a0a8006ea0a9006005800000c0a10054
:1006000000d0a00000e0a000600588008660a9007e
:100610009660a80021a2a9002182a9002002a900b9
:10062000001180000010a1000020a100001188002e
:1006300020a2a9002062a900206d2c0051f92300fe
:10064000008fbe001e00be000e00070000007800f4
:100650004011880023a2a90021e2a8002342a8009b
:100660006910090000000000691009000000000086
:100670001006200020118800fbff37000040da0040
:100680000000fe000001be00190007000470a70072
:1006900003f0a10003f8a30013003a006509b100bc
:1006a00010003200090035006928e1000200350021
:1006b0000100280000000500000040008180480083
:1006c0008502e900fcff3a0000000600f88f4200b6
:1006d000050035008100d1000080d3008502e800cc
:1006e000fcff3a00000006008000eb00000005005f
:1006f000c70ade00f107b200f50fb20008003200b1
:10070000e1cf4200020032000170a0002400050089
:10071000810f70000100320004080500440005004c
:10072000810f700002003a00140005008502e90004
:100730000000400081c04800fcff3b000170a000a9
:04074000240005008c
:020000040000fa
:10074400000800000200000000000000aa0380006e
:020000040000fa
:0407540000000000a1
:020000040000fa
:0200000401f009
:04000c00f8ff0000f9
:00000001FF
